:100000000C9467000C948F000C948F000C948F005C
:100010000C948F000C948F000C948F000C948F0024
:100020000C948F000C948F000C948F000C948F0014
:100030000C948F000C948F000C948F000C948F0004
:100040000C94B8030C948F000C9428040C940204B4
:100050000C948F000C948F000C948F000C948F00E4
:100060000C945A040C948F000703F6020903F8025B
:10007000FA02FC02FE02000302030403000000086F
:10008000000201000003040700000000000000005F
:1000900000000000250028002B00000000002400C4
:1000A00027002A00040404040404040402020202D7
:1000B000020203030303030301020408102040802B
:1000C00001020408102001020408102088051124F0
:1000D0001FBECFEFD8E0DEBFCDBF22E0AAE2B1E085
:1000E00001C01D92A439B207E1F711E0A0E0B1E030
:1000F000E2EBF0E102C005900D92AA32B107D9F708
:1001000010E0C7E6D0E004C02197FE010E94380845
:10011000C636D107C9F70E94C1050C9457080C9444
:10012000000090E0FC01E854FF4F2491FC01EC55E5
:10013000FF4F8491882399F090E0880F991FFC016C
:10014000E656FF4FA591B491FC01E057FF4F859112
:1001500094918FB7F894EC91E22BEC938FBF0895B4
:1001600090E0FC01E458FF4F2491FC01E854FF4F5C
:100170003491FC01EC55FF4FE491EE2309F43CC0AF
:10018000222339F1233091F038F42130A9F02230C4
:1001900001F584B58F7D12C0273091F02830A1F091
:1001A0002430B9F4809180008F7D03C0809180005D
:1001B0008F77809380000DC084B58F7784BD09C090
:1001C0008091B0008F7703C08091B0008F7D8093C5
:1001D000B000F0E0EE0FFF1FE057FF4FA591B49184
:1001E0009FB7F894611104C08C913095382302C0F8
:1001F000EC913E2B3C939FBF08953FB7F8948091BC
:10020000E7019091E801A091E901B091EA0126B5DA
:10021000A89B05C02F3F19F00196A11DB11D3FBF3E
:10022000BA2FA92F982F8827820F911DA11DB11DCC
:10023000BC01CD0142E0660F771F881F991F4A95C8
:10024000D1F7089508950895CF92DF92EF92FF922B
:100250000F931F93CF93DF936C017A018B01C0E062
:10026000D0E0CE15DF0581F0D8016D918D01D6016A
:10027000ED91FC910190F081E02DC6010995892B4B
:1002800011F02196EECF7E01C701DF91CF911F9132
:100290000F91FF90EF90DF90CF900895FC01538D68
:1002A000448D252F30E0842F90E0821B930B541750
:1002B00010F0CF96089501970895FC01918D828DDD
:1002C000981761F0828DDF01A80FB11D5D968C91AA
:1002D000928D9F5F9F73928F90E008958FEF9FEFB5
:1002E0000895FC01918D828D981731F0828DE80F71
:1002F000F11D858D90E008958FEF9FEF0895FC012B
:10030000918D228D892F90E0805C9F4F821B9109F7
:100310008F73992708958BEE91E00E947F0121E071
:10032000892B09F420E0822F0895FC01848DDF01E0
:10033000A80FB11DA35ABF4F2C91848D90E0019658
:100340008F739927848FA689B7892C93A089B18947
:100350008C91837080648C93938D848D981306C0E8
:100360000288F389E02D80818F7D80830895EF924C
:10037000FF920F931F93CF93DF93EC0181E0888F5F
:100380009B8D8C8D981305C0E889F989808185FD46
:1003900026C0F62E0B8D10E00F5F1F4F0F73112735
:1003A000E02E8C8DE8120CC00FB607FCFACFE8895E
:1003B000F989808185FFF5CFCE010E949501F1CFAB
:1003C0008B8DFE01E80FF11DE35AFF4FF0829FB7BE
:1003D000F8940B8FEA89FB89808180620AC09FB7FD
:1003E000F894EE89FF896083E889F98980818370B8
:1003F000806480839FBF81E090E0DF91CF911F9167
:100400000F91FF90EF900895CF93DF93EC01888DCB
:100410008823C9F0EA89FB89808185FD05C0A88908
:10042000B9898C9186FD0FC00FB607FCF5CF80818E
:1004300085FFF2CFA889B9898C9185FFEDCFCE01D8
:100440000E949501E7CFDF91CF91089580E090E081
:10045000892B29F00E948B0181110C9400000895D2
:1004600085ED8093BC008091BC0084FDFCCF109290
:10047000BB01089540914A01262F30E0240F311D21
:1004800021323105DCF42091BB012430C9F4FC0198
:1004900080E090E0861758F430914A012191DC0108
:1004A000A65DBE4FA30FB11D2C930196F3CF809193
:1004B0004A01680F60934A0180E0089581E0089541
:1004C00082E008950895E091BD018091BC01E81794
:1004D00030F4F0E0E254FE4F808190E008958FEF19
:1004E0009FEF08959091BD018091BC01981750F441
:1004F000E92FF0E0E254FE4F208130E09F5F9093BF
:10050000BD0102C02FEF3FEFC90108958091BC01EA
:1005100090E02091BD01821B91090895CF92DF9256
:10052000EF92FF920F931F93CF93DF937C01CB0148
:100530008A0120917101222389F0EB016B01C40E25
:10054000D51ECC15DD0569F06991D701ED91FC91BF
:100550000190F081E02DC7010995F3CF642F0E942F
:100560003A02C801DF91CF911F910F91FF90EF9058
:10057000DF90CF900895CF93DF931F92CDB7DEB772
:100580006983209171012223D1F0209194012032BE
:1005900040F021E030E0FC013383228380E090E0F2
:1005A00015C080917201E82FF0E0ED58FE4F99815F
:1005B00090838F5F809372018093940105C061E006
:1005C000CE0101960E943A0281E090E00F90DF9107
:1005D000CF910895089580E090E008958A309105C4
:1005E000A8F4FC01EC5CFF4F0C94380880E30895FC
:1005F00089E7089583E308958BE508958FE50895CD
:1006000080E708958FE708958BE7089508958EE7B2
:1006100008958DE608950F931F93CF93DF93C0E065
:10062000D0E0082F10E0B8010C2E02C07595679538
:100630000A94E2F7617084E00E94B00061E086E015
:100640000E94B00060E086E00E94B0002196C830B1
:10065000D10549F7DF91CF911F910F910895009730
:1006600069F0FC0101900020E9F73197AF01481BC8
:10067000590BBC018BEE91E00C94240180E090E0DA
:1006800008958F929F92AF92BF92CF92DF92EF9296
:10069000FF920F931F93CF93DF93CDB7DEB7A19750
:1006A0000FB6F894DEBF0FBECDBF6C01990FEE08F8
:1006B000FF08F7FE2BC06DE28BEE91E00E94B701C0
:1006C0008C0122273327A9012C193D094E095F0906
:1006D00019A2CE0181967C019AE0892E912CA12C41
:1006E000B12CCA01B901A50194010E941608605DF0
:1006F000F70162937F01211531054105510589F705
:10070000CF010E942F03800F911F1DC0A7019601EA
:1007100019A28E010F5D1F4F8AE0C82ED12CE12C4B
:10072000F12CCA01B901A70196010E941608605D6B
:10073000F80162938F01211531054105510589F7B3
:10074000CF010E942F03A1960FB6F894DEBF0FBE13
:10075000CDBFDF91CF911F910F91FF90EF90DF9070
:10076000CF90BF90AF909F908F9008950E945208B5
:100770001F920F920FB60F9211242F933F938F93D6
:100780009F93AF93BF938091E3019091E401A09177
:10079000E501B091E6013091E20123E0230F2D370E
:1007A00020F40196A11DB11D05C026E8230F029675
:1007B000A11DB11D2093E2018093E3019093E40118
:1007C000A093E501B093E6018091E7019091E801E3
:1007D000A091E901B091EA010196A11DB11D80939C
:1007E000E7019093E801A093E901B093EA01BF917A
:1007F000AF919F918F913F912F910F900FBE0F90CE
:100800001F9018951F920F920FB60F9211242F93DD
:100810003F934F935F936F937F938F939F93AF9388
:10082000BF93EF93FF938BEE91E00E949501FF91B0
:10083000EF91BF91AF919F918F917F916F915F9158
:100840004F913F912F910F900FBE0F901F901895D1
:100850001F920F920FB60F9211242F938F939F9395
:10086000EF93FF93E091FB01F091FC018081E09117
:100870000102F091020282FD12C090818091040277
:100880008F5F8F7320910502821751F0E09104026F
:10089000F0E0E551FE4F958F8093040201C0808106
:1008A000FF91EF919F918F912F910F900FBE0F901D
:1008B0001F9018951F920F920FB60F9211242F932D
:1008C0003F934F935F936F937F938F939F93AF93D8
:1008D000BF93EF93FF938091B900887F803609F42E
:1008E0009CC068F5883209F45BC090F4803109F44B
:1008F00054C038F4882309F4F6C0883009F44DC098
:10090000F6C0883109F44CC0803209F45DC0EFC0F4
:10091000803409F468C048F4803309F455C0883342
:1009200009F0E5C08093B901D8C0803509F44FC003
:10093000883509F45DC0883409F0D9C0D6C088393B
:1009400009F4C7C0A8F4883709F467C038F48836BA
:1009500009F463C0803709F460C0C9C0883809F45D
:10096000B8C0803909F45FC0803809F0C0C05BC0EE
:10097000803B09F486C038F4803A09F466C0883AAE
:1009800009F47FC0B4C0803C09F4A7C0883C09F4D6
:10099000A4C0883B09F48AC0AAC08091B60110C0E7
:1009A0009091B8018091B701981770F5E091B80166
:1009B00081E08E0F8093B801F0E0EB56FE4F80810E
:1009C0008093BB0085EC86C08093B9018EC0E09116
:1009D000B80181E08E0F8093B8018091BB00F0E0F8
:1009E000EB56FE4F80839091B8018091B7016EC0A5
:1009F000E091B80181E08E0F8093B8018091BB0037
:100A0000F0E0EB56FE4F80838091BA0181116DC0FA
:100A100081E08093B50184EA61C083E08093BB01EB
:100A200010926C01CFCF80916C01803208F051C0E0
:100A3000E0916C0181E08E0F80936C018091BB008E
:100A4000F0E0E45BFE4F8083BDCF85EC8093BC007B
:100A50001092BB0180916C01803230F4E0916C0106
:100A6000F0E0E45BFE4F108260916C0170E0E09179
:100A70006D01F0916E018CE491E0099510926C018A
:100A800036C084E08093BB0110924B0110924A0162
:100A9000E0916F01F0917001099580914A018111F7
:100AA00005C081E080934A0110922A01E0914B0138
:100AB00081E08E0F80934B01F0E0E65DFE4F808178
:100AC0008093BB0090914B0180914A01981708F4E4
:100AD00079CF85E88093BC000AC085EC8093BC0088
:100AE0001092BB0104C01092B9010E943002FF9124
:100AF000EF91BF91AF919F918F917F916F915F9196
:100B00004F913F912F910F900FBE0F901F9018950E
:100B1000EBEEF1E01382128288EE93E0A0E0B0E009
:100B200084839583A683B78324E031E031832083D7
:100B300025EC30E03587248724EC30E037872687A2
:100B400020EC30E0318B208B21EC30E0338B228B9A
:100B500022EC30E0358B248B26EC30E0378B268B73
:100B6000118E128E138E148EE8E8F2E01382128238
:100B700084839583A683B78386E191E09183808304
:100B80000895789484B5826084BD84B5816084BD05
:100B900085B5826085BD85B5816085BD80916E001B
:100BA000816080936E00109281008091810082604C
:100BB0008093810080918100816080938100809189
:100BC00080008160809380008091B1008460809378
:100BD000B1008091B00081608093B00080917A0074
:100BE000846080937A0080917A00826080937A009A
:100BF00080917A00816080937A0080917A00806889
:100C000080937A001092C100E091FB01F091FC0109
:100C100082E08083E091FB01F091FC011082E09181
:100C2000F701F091F8011082E091F901F091FA01D9
:100C300080E1808310920302E091FF01F0910002B5
:100C400086E08083E091FD01F091FE01808180616A
:100C50008083E091FD01F091FE01808188608083B6
:100C6000E091FD01F091FE01808180688083E09138
:100C7000FD01F091FE0180818F7D80831092BD0186
:100C80001092BC0110927201109294011092BB015B
:100C900081E08093BA011092B50161E082E10E9487
:100CA000B00061E083E10E94B0008091B9008E7FC6
:100CB0008093B9008091B9008D7F8093B90088E45A
:100CC0008093B80085E48093BC0082E291E0909329
:100CD000700180936F0183E291E090936E018093A5
:100CE0006D0188E00E94910087E00E9491008DE0F4
:100CF0000E9491008CE00E94910085E00E9491008A
:100D000086E00E94910084E00E949100C1E03324BB
:100D10003A94DAEF64E6262E7AE0E72EF12CE4E648
:100D2000CE2ED12C84E291E00E942F03C09371015A
:100D300028E620939301109272011092940160E0D2
:100D400088E892E00E94BB0290919401913208F0F1
:100D500044C08091BB018111FCCF82E08093BB0134
:100D6000C093BA013092B9011092B8019093B701C3
:100D7000E3E7F1E0A5E9B1E080E0981721F02191E7
:100D80002D938F5FFACF1092B6018091B601806DDE
:100D90008093B6018091B501813071F41092B50154
:100DA0008091B6018093BB008091BC0083FDF8CF99
:100DB00025EC2093BC0003C085EE8093BC0080919D
:100DC000BB018230E1F38091B9018F3F31F0809116
:100DD000B901803211F08091B90110927201109224
:100DE0009401109271018091BB018111FCCFC093DD
:100DF000BB01C093BA013092B9011092B80126E04C
:100E00002093B701C093B6018091B601806D8093A5
:100E1000B6018091B501813071F41092B5018091D5
:100E2000B6018093BB008091BC0083FDF8CF85ECB8
:100E30008093BC0003C025EE2093BC008091BB01D1
:100E40008130E1F38091B801873018F49091B801B6
:100E500001C097E0A5E9B1E0EEEBF1E080E0891791
:100E600021F02D9121938F5FFACF1092BD018093D5
:100E7000BC0188E892E00E94720288E892E00E9439
:100E800072029C01332794E0359527959A95E1F7F6
:100E9000182FD29F100D112488E892E00E94720250
:100EA0009C01332744E0359527954A95E1F7082FB3
:100EB000D29F000D112488E892E00E94720288E817
:100EC00092E00E94720288E892E00E94720288E832
:100ED00092E00E947202802F90E09093E101809353
:100EE000E001212F30E03093DF012093DE010E94EA
:100EF000410387E291E00E942F038091DE019091EF
:100F0000DF010E9441038091E0019091E101289E60
:100F10008001299E100D11248091DE019091DF0146
:100F2000080F191F60E088E00E94B00060E085E0D3
:100F30000E94B000C801B7010E9402083B010E9454
:100F4000EE020E940B03C301B7010E9402080E9437
:100F5000EE020E940B03C801B6010E940208CB01F9
:100F6000B7010E9402080E94EE020E940B03C80112
:100F700068EE73E00E940208CB01B7010E940208EC
:100F80000E94EE020E940B0361E088E00E94B00024
:100F900061E087E00E94B00061E08DE00E94B00057
:100FA00061E08CE00E94B00061E085E00E94B0004A
:100FB0000E94FD004B015C0158EE452E53E0552E7A
:100FC000612C712C0E94FD00DC01CB01881999096C
:100FD000AA09BB09883E9340A105B10598F381E0B9
:100FE000481A51086108710828EE820E23E0921E0B
:100FF000A11CB11C411451046104710419F70E9431
:10100000260290CE97FB072E16F4009407D077FDAA
:1010100009D00E943E0807FC05D03EF490958195CA
:101020009F4F0895709561957F4F0895A1E21A2E04
:10103000AA1BBB1BFD010DC0AA1FBB1FEE1FFF1F7C
:10104000A217B307E407F50720F0A21BB30BE40BCC
:10105000F50B661F771F881F991F1A9469F7609513
:101060007095809590959B01AC01BD01CF010895CD
:10107000EE0FFF1F0590F491E02D0994AA1BBB1BF6
:1010800051E107C0AA1FBB1FA617B70710F0A61B88
:10109000B70B881F991F5A95A9F780959095BC01A9
:1010A000CD01089581E090E0F8940C945708F894ED
:0210B000FFCF70
:1010B20000000000B70124014E0104027F015D011E
:1010C200710100000000BB028E02EB026202860286
:0A10D200720263020D0A003A0000EA
:107E0000112484B714BE81FFF0D085E080938100F7
:107E100082E08093C00088E18093C10086E0809377
:107E2000C20080E18093C4008EE0C9D0259A86E02C
:107E300020E33CEF91E0309385002093840096BBD3
:107E4000B09BFECF1D9AA8958150A9F7CC24DD24C4
:107E500088248394B5E0AB2EA1E19A2EF3E0BF2EE7
:107E6000A2D0813461F49FD0082FAFD0023811F036
:107E7000013811F484E001C083E08DD089C08234E0
:107E800011F484E103C0853419F485E0A6D080C0E4
:107E9000853579F488D0E82EFF2485D0082F10E0AE
:107EA000102F00270E291F29000F111F8ED06801E7
:107EB0006FC0863521F484E090D080E0DECF843638
:107EC00009F040C070D06FD0082F6DD080E0C81688
:107ED00080E7D80618F4F601B7BEE895C0E0D1E017
:107EE00062D089930C17E1F7F0E0CF16F0E7DF06D8
:107EF00018F0F601B7BEE89568D007B600FCFDCFD4
:107F0000A601A0E0B1E02C9130E011968C91119780
:107F100090E0982F8827822B932B1296FA010C0160
:107F200087BEE89511244E5F5F4FF1E0A038BF0790
:107F300051F7F601A7BEE89507B600FCFDCF97BE46
:107F4000E89526C08437B1F42ED02DD0F82E2BD052
:107F50003CD0F601EF2C8F010F5F1F4F84911BD097
:107F6000EA94F801C1F70894C11CD11CFA94CF0C13
:107F7000D11C0EC0853739F428D08EE10CD085E9AC
:107F80000AD08FE07ACF813511F488E018D01DD067
:107F900080E101D065CF982F8091C00085FFFCCF94
:107FA0009093C60008958091C00087FFFCCF809118
:107FB000C00084FD01C0A8958091C6000895E0E648
:107FC000F0E098E1908380830895EDDF803219F02E
:107FD00088E0F5DFFFCF84E1DECF1F93182FE3DFCA
:107FE0001150E9F7F2DF1F91089580E0E8DFEE27F6
:047FF000FF270994CA
:027FFE00040479
:0400000300007E007B
:00000001FF
